{
  "contractName": "Marketplace",
  "abi": [
    {
      "constant": false,
      "inputs": [
        {
          "name": "data1",
          "type": "bytes"
        },
        {
          "name": "data2",
          "type": "bytes"
        },
        {
          "name": "orderId",
          "type": "bytes32"
        },
        {
          "name": "expiration",
          "type": "uint256"
        },
        {
          "name": "taker",
          "type": "address"
        }
      ],
      "name": "executeOrder",
      "outputs": [],
      "payable": false,
      "stateMutability": "nonpayable",
      "type": "function"
    }
  ],
  "bytecode": "0x608060405234801561001057600080fd5b50610738806100206000396000f3fe608060405234801561001057600080fd5b506004361061002b5760003560e01c8063e660b9e414610030575b600080fd5b6101b4600480360360a081101561004657600080fd5b810190808035906020019064010000000081111561006357600080fd5b82018360208201111561007557600080fd5b8035906020019184600183028401116401000000008311171561009757600080fd5b91908080601f016020809104026020016040519081016040528093929190818152602001838380828437600081840152601f19601f820116905080830192505050505050509192919290803590602001906401000000008111156100fa57600080fd5b82018360208201111561010c57600080fd5b8035906020019184600183028401116401000000008311171561012e57600080fd5b91908080601f016020809104026020016040519081016040528093929190818152602001838380828437600081840152601f19601f8201169050808301925050505050505091929192908035906020019092919080359060200190929190803573ffffffffffffffffffffffffffffffffffffffff1690602001909291905050506101b6565b005b6101be6106d5565b6101c786610600565b90506101d16106d5565b6101da86610600565b90506000826000015173ffffffffffffffffffffffffffffffffffffffff166319d27d9c846020015185604001518986600001518760400151604051602001808481526020018373ffffffffffffffffffffffffffffffffffffffff1673ffffffffffffffffffffffffffffffffffffffff1660601b815260140182815260200193505050506040516020818303038152906040528051906020012089896040518663ffffffff1660e01b815260040180806020018681526020018581526020018481526020018373ffffffffffffffffffffffffffffffffffffffff1673ffffffffffffffffffffffffffffffffffffffff168152602001828103825287818151815260200191508051906020019080838360005b8381101561030b5780820151818401526020810190506102f0565b50505050905090810190601f1680156103385780820380516001836020036101000a031916815260200191505b509650505050505050602060405180830381600087803b15801561035b57600080fd5b505af115801561036f573d6000803e3d6000fd5b505050506040513d602081101561038557600080fd5b810190808051906020019092919050505090506000826000015173ffffffffffffffffffffffffffffffffffffffff166319d27d9c846020015185604001518a88600001518960400151604051602001808481526020018373ffffffffffffffffffffffffffffffffffffffff1673ffffffffffffffffffffffffffffffffffffffff1660601b81526014018281526020019350505050604051602081830303815290604052805190602001208a876040518663ffffffff1660e01b815260040180806020018681526020018581526020018481526020018373ffffffffffffffffffffffffffffffffffffffff1673ffffffffffffffffffffffffffffffffffffffff168152602001828103825287818151815260200191508051906020019080838360005b838110156104c75780820151818401526020810190506104ac565b50505050905090810190601f1680156104f45780820380516001836020036101000a031916815260200191505b509650505050505050602060405180830381600087803b15801561051757600080fd5b505af115801561052b573d6000803e3d6000fd5b505050506040513d602081101561054157600080fd5b810190808051906020019092919050505090508073ffffffffffffffffffffffffffffffffffffffff168573ffffffffffffffffffffffffffffffffffffffff16146105f5576040517f08c379a000000000000000000000000000000000000000000000000000000000815260040180806020018281038252601c8152602001807f4f726465727320617265206e6f7420636f6d706c696d656e746172790000000081525060200191505060405180910390fd5b505050505050505050565b6106086106d5565b81806020019051606081101561061d57600080fd5b8101908080519060200190929190805164010000000081111561063f57600080fd5b8281019050602081018481111561065557600080fd5b815185600182028301116401000000008211171561067257600080fd5b505092919060200180519060200190929190505050829250836000018460200185604001838152508390528373ffffffffffffffffffffffffffffffffffffffff1673ffffffffffffffffffffffffffffffffffffffff16815250505050919050565b6040518060600160405280600073ffffffffffffffffffffffffffffffffffffffff1681526020016060815260200160008152509056fea165627a7a72305820b18d3f36c5b68735b80bd83a946ed8f3411fd51a28e23f0716a1b76b1855d6550029",
  "source": "pragma solidity ^0.5.2;\n\ninterface MarketplaceToken {\n  function transferWithSig(bytes calldata sig, uint256 tokenIdOrAmount, bytes32 data, uint256 expiration, address to) external returns (address);\n}\n\ncontract Marketplace {\n  struct Order {\n    address token;\n    bytes sig;\n    uint256 tokenIdOrAmount;\n  }\n\n  function decode(bytes memory data) internal pure returns(Order memory order) {\n    (order.token, order.sig, order.tokenIdOrAmount) = abi.decode(data, (address, bytes, uint256));\n  }\n\n  function executeOrder(\n    bytes memory data1,\n    bytes memory data2,\n    bytes32 orderId,\n    uint256 expiration,\n    address taker\n  ) public {\n    Order memory order1 = decode(data1);\n    Order memory order2 = decode(data2);\n\n    // Transferring order1.token tokens from tradeParticipant1 to address2\n    address tradeParticipant1 = MarketplaceToken(order1.token).transferWithSig(\n      order1.sig,\n      order1.tokenIdOrAmount,\n      keccak256(abi.encodePacked(orderId, order2.token, order2.tokenIdOrAmount)),\n      expiration,\n      taker\n    );\n\n    // Transferring token2 from tradeParticipant2 to tradeParticipant1\n    address tradeParticipant2 = MarketplaceToken(order2.token).transferWithSig(\n      order2.sig,\n      order2.tokenIdOrAmount,\n      keccak256(abi.encodePacked(orderId, order1.token, order1.tokenIdOrAmount)),\n      expiration,\n      tradeParticipant1\n    );\n    require(taker == tradeParticipant2, \"Orders are not complimentary\");\n  }\n}\n",
  "sourcePath": "/Users/angela/matic/asset-swaps/truffle/assetSwaps2/contracts/Marketplace.sol",
  "compiler": {
    "name": "solc",
    "version": "0.5.8+commit.23d335f2.Emscripten.clang"
  },
  "schemaVersion": "3.0.16",
  "updatedAt": "2019-12-07T14:00:39.217Z",
  "devdoc": {
    "methods": {}
  },
  "userdoc": {
    "methods": {}
  }
}